{
  "_format": "hh-sol-artifact-1",
  "contractName": "TrustlessRewards",
  "sourceName": "contracts/TrustlessRewards.sol",
  "abi": [
    {
      "inputs": [
        {
          "internalType": "address",
          "name": "_feeRecipient",
          "type": "address"
        },
        {
          "internalType": "uint256",
          "name": "_platformFeeBps",
          "type": "uint256"
        }
      ],
      "stateMutability": "nonpayable",
      "type": "constructor"
    },
    {
      "inputs": [],
      "name": "CampaignMaxClaimsReached",
      "type": "error"
    },
    {
      "inputs": [],
      "name": "CampaignNotActive",
      "type": "error"
    },
    {
      "inputs": [],
      "name": "ECDSAInvalidSignature",
      "type": "error"
    },
    {
      "inputs": [
        {
          "internalType": "uint256",
          "name": "length",
          "type": "uint256"
        }
      ],
      "name": "ECDSAInvalidSignatureLength",
      "type": "error"
    },
    {
      "inputs": [
        {
          "internalType": "bytes32",
          "name": "s",
          "type": "bytes32"
        }
      ],
      "name": "ECDSAInvalidSignatureS",
      "type": "error"
    },
    {
      "inputs": [],
      "name": "InsufficientBalance",
      "type": "error"
    },
    {
      "inputs": [],
      "name": "InvalidAmount",
      "type": "error"
    },
    {
      "inputs": [],
      "name": "InvalidFeeSettings",
      "type": "error"
    },
    {
      "inputs": [],
      "name": "InvalidNonce",
      "type": "error"
    },
    {
      "inputs": [],
      "name": "InvalidShortString",
      "type": "error"
    },
    {
      "inputs": [],
      "name": "InvalidSignature",
      "type": "error"
    },
    {
      "inputs": [
        {
          "internalType": "address",
          "name": "owner",
          "type": "address"
        }
      ],
      "name": "OwnableInvalidOwner",
      "type": "error"
    },
    {
      "inputs": [
        {
          "internalType": "address",
          "name": "account",
          "type": "address"
        }
      ],
      "name": "OwnableUnauthorizedAccount",
      "type": "error"
    },
    {
      "inputs": [],
      "name": "ReentrancyGuardReentrantCall",
      "type": "error"
    },
    {
      "inputs": [
        {
          "internalType": "address",
          "name": "token",
          "type": "address"
        }
      ],
      "name": "SafeERC20FailedOperation",
      "type": "error"
    },
    {
      "inputs": [],
      "name": "SignatureExpired",
      "type": "error"
    },
    {
      "inputs": [
        {
          "internalType": "string",
          "name": "str",
          "type": "string"
        }
      ],
      "name": "StringTooLong",
      "type": "error"
    },
    {
      "inputs": [],
      "name": "TransferFailed",
      "type": "error"
    },
    {
      "inputs": [],
      "name": "Unauthorized",
      "type": "error"
    },
    {
      "anonymous": false,
      "inputs": [
        {
          "indexed": true,
          "internalType": "uint256",
          "name": "campaignId",
          "type": "uint256"
        },
        {
          "indexed": false,
          "internalType": "uint256",
          "name": "amountReturned",
          "type": "uint256"
        }
      ],
      "name": "CampaignClosed",
      "type": "event"
    },
    {
      "anonymous": false,
      "inputs": [
        {
          "indexed": true,
          "internalType": "uint256",
          "name": "campaignId",
          "type": "uint256"
        },
        {
          "indexed": true,
          "internalType": "address",
          "name": "owner",
          "type": "address"
        },
        {
          "indexed": false,
          "internalType": "address",
          "name": "signer",
          "type": "address"
        },
        {
          "indexed": false,
          "internalType": "address",
          "name": "token",
          "type": "address"
        },
        {
          "indexed": false,
          "internalType": "uint256",
          "name": "rewardPerClaim",
          "type": "uint256"
        },
        {
          "indexed": false,
          "internalType": "uint256",
          "name": "maxClaims",
          "type": "uint256"
        }
      ],
      "name": "CampaignCreated",
      "type": "event"
    },
    {
      "anonymous": false,
      "inputs": [
        {
          "indexed": true,
          "internalType": "uint256",
          "name": "campaignId",
          "type": "uint256"
        },
        {
          "indexed": true,
          "internalType": "address",
          "name": "user",
          "type": "address"
        },
        {
          "indexed": false,
          "internalType": "uint256",
          "name": "amount",
          "type": "uint256"
        },
        {
          "indexed": false,
          "internalType": "uint256",
          "name": "nonce",
          "type": "uint256"
        },
        {
          "indexed": false,
          "internalType": "uint256",
          "name": "feeAmount",
          "type": "uint256"
        }
      ],
      "name": "Claimed",
      "type": "event"
    },
    {
      "anonymous": false,
      "inputs": [],
      "name": "EIP712DomainChanged",
      "type": "event"
    },
    {
      "anonymous": false,
      "inputs": [
        {
          "indexed": true,
          "internalType": "uint256",
          "name": "campaignId",
          "type": "uint256"
        },
        {
          "indexed": false,
          "internalType": "uint256",
          "name": "amount",
          "type": "uint256"
        }
      ],
      "name": "FundsDeposited",
      "type": "event"
    },
    {
      "anonymous": false,
      "inputs": [
        {
          "indexed": true,
          "internalType": "address",
          "name": "previousOwner",
          "type": "address"
        },
        {
          "indexed": true,
          "internalType": "address",
          "name": "newOwner",
          "type": "address"
        }
      ],
      "name": "OwnershipTransferred",
      "type": "event"
    },
    {
      "anonymous": false,
      "inputs": [
        {
          "indexed": false,
          "internalType": "uint256",
          "name": "feeBps",
          "type": "uint256"
        },
        {
          "indexed": false,
          "internalType": "address",
          "name": "recipient",
          "type": "address"
        }
      ],
      "name": "PlatformFeeUpdated",
      "type": "event"
    },
    {
      "inputs": [
        {
          "internalType": "uint256",
          "name": "",
          "type": "uint256"
        }
      ],
      "name": "campaigns",
      "outputs": [
        {
          "internalType": "address",
          "name": "owner",
          "type": "address"
        },
        {
          "internalType": "address",
          "name": "signer",
          "type": "address"
        },
        {
          "internalType": "address",
          "name": "token",
          "type": "address"
        },
        {
          "internalType": "uint256",
          "name": "balance",
          "type": "uint256"
        },
        {
          "internalType": "uint256",
          "name": "rewardPerClaim",
          "type": "uint256"
        },
        {
          "internalType": "uint256",
          "name": "maxClaims",
          "type": "uint256"
        },
        {
          "internalType": "uint256",
          "name": "claimsCount",
          "type": "uint256"
        },
        {
          "internalType": "bool",
          "name": "active",
          "type": "bool"
        }
      ],
      "stateMutability": "view",
      "type": "function"
    },
    {
      "inputs": [
        {
          "internalType": "uint256",
          "name": "campaignId",
          "type": "uint256"
        },
        {
          "internalType": "uint256",
          "name": "amount",
          "type": "uint256"
        },
        {
          "internalType": "uint256",
          "name": "nonce",
          "type": "uint256"
        },
        {
          "internalType": "uint256",
          "name": "expiry",
          "type": "uint256"
        },
        {
          "internalType": "bytes",
          "name": "signature",
          "type": "bytes"
        }
      ],
      "name": "claim",
      "outputs": [],
      "stateMutability": "nonpayable",
      "type": "function"
    },
    {
      "inputs": [
        {
          "internalType": "address",
          "name": "signer",
          "type": "address"
        },
        {
          "internalType": "address",
          "name": "token",
          "type": "address"
        },
        {
          "internalType": "uint256",
          "name": "rewardPerClaim",
          "type": "uint256"
        },
        {
          "internalType": "uint256",
          "name": "maxClaims",
          "type": "uint256"
        }
      ],
      "name": "createCampaign",
      "outputs": [
        {
          "internalType": "uint256",
          "name": "",
          "type": "uint256"
        }
      ],
      "stateMutability": "payable",
      "type": "function"
    },
    {
      "inputs": [
        {
          "internalType": "uint256",
          "name": "campaignId",
          "type": "uint256"
        },
        {
          "internalType": "uint256",
          "name": "amount",
          "type": "uint256"
        }
      ],
      "name": "deposit",
      "outputs": [],
      "stateMutability": "payable",
      "type": "function"
    },
    {
      "inputs": [],
      "name": "eip712Domain",
      "outputs": [
        {
          "internalType": "bytes1",
          "name": "fields",
          "type": "bytes1"
        },
        {
          "internalType": "string",
          "name": "name",
          "type": "string"
        },
        {
          "internalType": "string",
          "name": "version",
          "type": "string"
        },
        {
          "internalType": "uint256",
          "name": "chainId",
          "type": "uint256"
        },
        {
          "internalType": "address",
          "name": "verifyingContract",
          "type": "address"
        },
        {
          "internalType": "bytes32",
          "name": "salt",
          "type": "bytes32"
        },
        {
          "internalType": "uint256[]",
          "name": "extensions",
          "type": "uint256[]"
        }
      ],
      "stateMutability": "view",
      "type": "function"
    },
    {
      "inputs": [],
      "name": "feeRecipient",
      "outputs": [
        {
          "internalType": "address",
          "name": "",
          "type": "address"
        }
      ],
      "stateMutability": "view",
      "type": "function"
    },
    {
      "inputs": [],
      "name": "nextCampaignId",
      "outputs": [
        {
          "internalType": "uint256",
          "name": "",
          "type": "uint256"
        }
      ],
      "stateMutability": "view",
      "type": "function"
    },
    {
      "inputs": [
        {
          "internalType": "uint256",
          "name": "",
          "type": "uint256"
        },
        {
          "internalType": "address",
          "name": "",
          "type": "address"
        }
      ],
      "name": "nonces",
      "outputs": [
        {
          "internalType": "uint256",
          "name": "",
          "type": "uint256"
        }
      ],
      "stateMutability": "view",
      "type": "function"
    },
    {
      "inputs": [],
      "name": "owner",
      "outputs": [
        {
          "internalType": "address",
          "name": "",
          "type": "address"
        }
      ],
      "stateMutability": "view",
      "type": "function"
    },
    {
      "inputs": [],
      "name": "platformFeeBps",
      "outputs": [
        {
          "internalType": "uint256",
          "name": "",
          "type": "uint256"
        }
      ],
      "stateMutability": "view",
      "type": "function"
    },
    {
      "inputs": [],
      "name": "renounceOwnership",
      "outputs": [],
      "stateMutability": "nonpayable",
      "type": "function"
    },
    {
      "inputs": [
        {
          "internalType": "uint256",
          "name": "campaignId",
          "type": "uint256"
        },
        {
          "internalType": "bool",
          "name": "active",
          "type": "bool"
        }
      ],
      "name": "setCampaignStatus",
      "outputs": [],
      "stateMutability": "nonpayable",
      "type": "function"
    },
    {
      "inputs": [
        {
          "internalType": "address",
          "name": "newOwner",
          "type": "address"
        }
      ],
      "name": "transferOwnership",
      "outputs": [],
      "stateMutability": "nonpayable",
      "type": "function"
    },
    {
      "inputs": [
        {
          "internalType": "uint256",
          "name": "_feeBps",
          "type": "uint256"
        },
        {
          "internalType": "address",
          "name": "_recipient",
          "type": "address"
        }
      ],
      "name": "updatePlatformFee",
      "outputs": [],
      "stateMutability": "nonpayable",
      "type": "function"
    },
    {
      "inputs": [
        {
          "internalType": "uint256",
          "name": "campaignId",
          "type": "uint256"
        }
      ],
      "name": "withdrawRemaining",
      "outputs": [],
      "stateMutability": "nonpayable",
      "type": "function"
    }
  ],
  "bytecode": "0x6101606040523480156200001257600080fd5b506040516200386b3803806200386b83398181016040528101906200003891906200057d565b336040518060400160405280600c81526020017f42617365517565737448756200000000000000000000000000000000000000008152506040518060400160405280600181526020017f3100000000000000000000000000000000000000000000000000000000000000815250620000bb600083620002e660201b90919060201c565b6101208181525050620000d9600182620002e660201b90919060201c565b6101408181525050818051906020012060e08181525050808051906020012061010081815250504660a08181525050620001186200033e60201b60201c565b608081815250503073ffffffffffffffffffffffffffffffffffffffff1660c08173ffffffffffffffffffffffffffffffffffffffff16815250505050600073ffffffffffffffffffffffffffffffffffffffff168173ffffffffffffffffffffffffffffffffffffffff1603620001ca5760006040517f1e4fbdf7000000000000000000000000000000000000000000000000000000008152600401620001c19190620005d5565b60405180910390fd5b620001db816200039b60201b60201c565b5060016003819055506103e881111562000221576040517fc6f4b8ef00000000000000000000000000000000000000000000000000000000815260040160405180910390fd5b600073ffffffffffffffffffffffffffffffffffffffff168273ffffffffffffffffffffffffffffffffffffffff161480156200025e5750600081115b1562000296576040517fc6f4b8ef00000000000000000000000000000000000000000000000000000000815260040160405180910390fd5b81600560006101000a81548173ffffffffffffffffffffffffffffffffffffffff021916908373ffffffffffffffffffffffffffffffffffffffff16021790555080600481905550505062000b27565b60006020835110156200030c5762000304836200046160201b60201c565b905062000338565b826200031e83620004ce60201b60201c565b60000190816200032f919062000862565b5060ff60001b90505b92915050565b60007f8b73c3c69bb8fe3d512ecc4cf759cc79239f7b179b0ffacaa9a75d522b39400f60e0516101005146306040516020016200038095949392919062000975565b60405160208183030381529060405280519060200120905090565b6000600260009054906101000a900473ffffffffffffffffffffffffffffffffffffffff16905081600260006101000a81548173ffffffffffffffffffffffffffffffffffffffff021916908373ffffffffffffffffffffffffffffffffffffffff1602179055508173ffffffffffffffffffffffffffffffffffffffff168173ffffffffffffffffffffffffffffffffffffffff167f8be0079c531659141344cd1fd0a4f28419497f9722a3daafe3b4186f6b6457e060405160405180910390a35050565b600080829050601f81511115620004b157826040517f305a27a9000000000000000000000000000000000000000000000000000000008152600401620004a8919062000a61565b60405180910390fd5b805181620004bf9062000ab7565b60001c1760001b915050919050565b6000819050919050565b600080fd5b600073ffffffffffffffffffffffffffffffffffffffff82169050919050565b60006200050a82620004dd565b9050919050565b6200051c81620004fd565b81146200052857600080fd5b50565b6000815190506200053c8162000511565b92915050565b6000819050919050565b620005578162000542565b81146200056357600080fd5b50565b60008151905062000577816200054c565b92915050565b60008060408385031215620005975762000596620004d8565b5b6000620005a7858286016200052b565b9250506020620005ba8582860162000566565b9150509250929050565b620005cf81620004fd565b82525050565b6000602082019050620005ec6000830184620005c4565b92915050565b600081519050919050565b7f4e487b7100000000000000000000000000000000000000000000000000000000600052604160045260246000fd5b7f4e487b7100000000000000000000000000000000000000000000000000000000600052602260045260246000fd5b600060028204905060018216806200067457607f821691505b6020821081036200068a57620006896200062c565b5b50919050565b60008190508160005260206000209050919050565b60006020601f8301049050919050565b600082821b905092915050565b600060088302620006f47fffffffffffffffffffffffffffffffffffffffffffffffffffffffffffffffff82620006b5565b620007008683620006b5565b95508019841693508086168417925050509392505050565b6000819050919050565b6000620007436200073d620007378462000542565b62000718565b62000542565b9050919050565b6000819050919050565b6200075f8362000722565b620007776200076e826200074a565b848454620006c2565b825550505050565b600090565b6200078e6200077f565b6200079b81848462000754565b505050565b5b81811015620007c357620007b760008262000784565b600181019050620007a1565b5050565b601f8211156200081257620007dc8162000690565b620007e784620006a5565b81016020851015620007f7578190505b6200080f6200080685620006a5565b830182620007a0565b50505b505050565b600082821c905092915050565b6000620008376000198460080262000817565b1980831691505092915050565b600062000852838362000824565b9150826002028217905092915050565b6200086d82620005f2565b67ffffffffffffffff811115620008895762000888620005fd565b5b6200089582546200065b565b620008a2828285620007c7565b600060209050601f831160018114620008da5760008415620008c5578287015190505b620008d1858262000844565b86555062000941565b601f198416620008ea8662000690565b60005b828110156200091457848901518255600182019150602085019450602081019050620008ed565b8683101562000934578489015162000930601f89168262000824565b8355505b6001600288020188555050505b505050505050565b6000819050919050565b6200095e8162000949565b82525050565b6200096f8162000542565b82525050565b600060a0820190506200098c600083018862000953565b6200099b602083018762000953565b620009aa604083018662000953565b620009b9606083018562000964565b620009c86080830184620005c4565b9695505050505050565b600082825260208201905092915050565b60005b8381101562000a03578082015181840152602081019050620009e6565b60008484015250505050565b6000601f19601f8301169050919050565b600062000a2d82620005f2565b62000a398185620009d2565b935062000a4b818560208601620009e3565b62000a568162000a0f565b840191505092915050565b6000602082019050818103600083015262000a7d818462000a20565b905092915050565b600081519050919050565b6000819050602082019050919050565b600062000aae825162000949565b80915050919050565b600062000ac48262000a85565b8262000ad08462000a90565b905062000add8162000aa0565b9250602082101562000b205762000b1b7fffffffffffffffffffffffffffffffffffffffffffffffffffffffffffffffff83602003600802620006b5565b831692505b5050919050565b60805160a05160c05160e051610100516101205161014051612ce962000b826000396000611913015260006118d801526000611fa801526000611f8701526000611c3a01526000611c9001526000611cb90152612ce96000f3fe6080604052600436106100e85760003560e01c8063865d05c11161008a57806399e5c9a71161005957806399e5c9a7146102dd578063e2bbb1581461030d578063eac7d18614610329578063f2fde38b14610352576100e8565b8063865d05c11461023757806386fc0541146102605780638da5cb5b14610289578063988f13a5146102b4576100e8565b806346904840116100c65780634690484014610199578063715018a6146101c45780637903a756146101db57806384b0196e14610206576100e8565b8063141961bc146100ed57806322dcd13e146101315780632a81d49d1461015c575b600080fd5b3480156100f957600080fd5b50610114600480360381019061010f919061217c565b61037b565b604051610128989796959493929190612214565b60405180910390f35b34801561013d57600080fd5b50610146610430565b6040516101539190612292565b60405180910390f35b34801561016857600080fd5b50610183600480360381019061017e91906122d9565b610436565b6040516101909190612292565b60405180910390f35b3480156101a557600080fd5b506101ae61045b565b6040516101bb9190612319565b60405180910390f35b3480156101d057600080fd5b506101d9610481565b005b3480156101e757600080fd5b506101f0610495565b6040516101fd9190612292565b60405180910390f35b34801561021257600080fd5b5061021b61049b565b60405161022e97969594939291906124d6565b60405180910390f35b34801561024357600080fd5b5061025e600480360381019061025991906122d9565b610545565b005b34801561026c57600080fd5b506102876004803603810190610282919061217c565b610681565b005b34801561029557600080fd5b5061029e610929565b6040516102ab9190612319565b60405180910390f35b3480156102c057600080fd5b506102db60048036038101906102d691906125bf565b610953565b005b6102f760048036038101906102f29190612659565b61107e565b6040516103049190612292565b60405180910390f35b610327600480360381019061032291906126c0565b6113aa565b005b34801561033557600080fd5b50610350600480360381019061034b919061272c565b6115f0565b005b34801561035e57600080fd5b506103796004803603810190610374919061276c565b6116fc565b005b60066020528060005260406000206000915090508060000160009054906101000a900473ffffffffffffffffffffffffffffffffffffffff16908060010160009054906101000a900473ffffffffffffffffffffffffffffffffffffffff16908060020160009054906101000a900473ffffffffffffffffffffffffffffffffffffffff16908060030154908060040154908060050154908060060154908060070160009054906101000a900460ff16905088565b60045481565b6008602052816000526040600020602052806000526040600020600091509150505481565b600560009054906101000a900473ffffffffffffffffffffffffffffffffffffffff1681565b610489611782565b6104936000611809565b565b60075481565b6000606080600080600060606104af6118cf565b6104b761190a565b46306000801b600067ffffffffffffffff8111156104d8576104d7612799565b5b6040519080825280602002602001820160405280156105065781602001602082028036833780820191505090505b507f0f00000000000000000000000000000000000000000000000000000000000000959493929190965096509650965096509650965090919293949596565b61054d611782565b6103e8821115610589576040517fc6f4b8ef00000000000000000000000000000000000000000000000000000000815260040160405180910390fd5b600073ffffffffffffffffffffffffffffffffffffffff168173ffffffffffffffffffffffffffffffffffffffff161480156105c55750600082115b156105fc576040517fc6f4b8ef00000000000000000000000000000000000000000000000000000000815260040160405180910390fd5b8160048190555080600560006101000a81548173ffffffffffffffffffffffffffffffffffffffff021916908373ffffffffffffffffffffffffffffffffffffffff1602179055507ff0c09f5238364083d828870e877edaebb364d9f19f4093fdbf24e486bbdca48482826040516106759291906127c8565b60405180910390a15050565b610689611945565b60006006600083815260200190815260200160002090508060000160009054906101000a900473ffffffffffffffffffffffffffffffffffffffff1673ffffffffffffffffffffffffffffffffffffffff163373ffffffffffffffffffffffffffffffffffffffff1614610729576040517f82b4290000000000000000000000000000000000000000000000000000000000815260040160405180910390fd5b6000816003015490506000810361076c576040517f2c5211c600000000000000000000000000000000000000000000000000000000815260040160405180910390fd5b6000826003018190555060008260070160006101000a81548160ff021916908315150217905550827f55468ddebce251685ac34a730dbdcef0b68719d769c74914843abf493b24deef826040516107c39190612292565b60405180910390a2600073ffffffffffffffffffffffffffffffffffffffff168260020160009054906101000a900473ffffffffffffffffffffffffffffffffffffffff1673ffffffffffffffffffffffffffffffffffffffff16036108cc5760003373ffffffffffffffffffffffffffffffffffffffff168260405161084990612822565b60006040518083038185875af1925050503d8060008114610886576040519150601f19603f3d011682016040523d82523d6000602084013e61088b565b606091505b50509050806108c6576040517f90b8ec1800000000000000000000000000000000000000000000000000000000815260040160405180910390fd5b5061091c565b61091b33828460020160009054906101000a900473ffffffffffffffffffffffffffffffffffffffff1673ffffffffffffffffffffffffffffffffffffffff1661198b9092919063ffffffff16565b5b5050610926611a0a565b50565b6000600260009054906101000a900473ffffffffffffffffffffffffffffffffffffffff16905090565b61095b611945565b82421115610995576040517f0819bdcd00000000000000000000000000000000000000000000000000000000815260040160405180910390fd5b60006006600088815260200190815260200160002090508060070160009054906101000a900460ff166109f4576040517f433528b600000000000000000000000000000000000000000000000000000000815260040160405180910390fd5b8060050154816006015410610a35576040517f8172bc8c00000000000000000000000000000000000000000000000000000000815260040160405180910390fd5b80600401548614610a72576040517f2c5211c600000000000000000000000000000000000000000000000000000000815260040160405180910390fd5b8581600301541015610ab0576040517ff4d678b800000000000000000000000000000000000000000000000000000000815260040160405180910390fd5b6008600088815260200190815260200160002060003373ffffffffffffffffffffffffffffffffffffffff1673ffffffffffffffffffffffffffffffffffffffff168152602001908152602001600020548514610b39576040517f756688fe00000000000000000000000000000000000000000000000000000000815260040160405180910390fd5b60007f27abbe8000951dfc7cdd6d65b128256bc3300501e191109167ba02c97a6535a68833898989604051602001610b7696959493929190612837565b6040516020818303038152906040528051906020012090506000610b9982611a14565b90506000610beb8287878080601f016020809104026020016040519081016040528093929190818152602001838380828437600081840152601f19601f82011690508083019250505050505050611a2e565b90508360010160009054906101000a900473ffffffffffffffffffffffffffffffffffffffff1673ffffffffffffffffffffffffffffffffffffffff168173ffffffffffffffffffffffffffffffffffffffff16141580610c785750600073ffffffffffffffffffffffffffffffffffffffff168173ffffffffffffffffffffffffffffffffffffffff16145b15610caf576040517f8baa579f00000000000000000000000000000000000000000000000000000000815260040160405180910390fd5b600860008b815260200190815260200160002060003373ffffffffffffffffffffffffffffffffffffffff1673ffffffffffffffffffffffffffffffffffffffff1681526020019081526020016000206000815480929190610d10906128c7565b9190505550836006016000815480929190610d2a906128c7565b919050555088846003016000828254610d43919061290f565b9250508190555060006127106004548b610d5d9190612943565b610d6791906129b4565b90506000818b610d77919061290f565b90503373ffffffffffffffffffffffffffffffffffffffff168c7f528937b330082d892a98d4e428ab2dcca7844b51d227a1c0ae67f0b5261acbd9838d86604051610dc4939291906129e5565b60405180910390a3600073ffffffffffffffffffffffffffffffffffffffff168660020160009054906101000a900473ffffffffffffffffffffffffffffffffffffffff1673ffffffffffffffffffffffffffffffffffffffff1603610f9d576000821115610ef4576000600560009054906101000a900473ffffffffffffffffffffffffffffffffffffffff1673ffffffffffffffffffffffffffffffffffffffff1683604051610e7590612822565b60006040518083038185875af1925050503d8060008114610eb2576040519150601f19603f3d011682016040523d82523d6000602084013e610eb7565b606091505b5050905080610ef2576040517f90b8ec1800000000000000000000000000000000000000000000000000000000815260040160405180910390fd5b505b60003373ffffffffffffffffffffffffffffffffffffffff1682604051610f1a90612822565b60006040518083038185875af1925050503d8060008114610f57576040519150601f19603f3d011682016040523d82523d6000602084013e610f5c565b606091505b5050905080610f97576040517f90b8ec1800000000000000000000000000000000000000000000000000000000815260040160405180910390fd5b50611068565b600082111561101857611017600560009054906101000a900473ffffffffffffffffffffffffffffffffffffffff16838860020160009054906101000a900473ffffffffffffffffffffffffffffffffffffffff1673ffffffffffffffffffffffffffffffffffffffff1661198b9092919063ffffffff16565b5b61106733828860020160009054906101000a900473ffffffffffffffffffffffffffffffffffffffff1673ffffffffffffffffffffffffffffffffffffffff1661198b9092919063ffffffff16565b5b505050505050611076611a0a565b505050505050565b60008083148061108e5750600082145b156110c5576040517f2c5211c600000000000000000000000000000000000000000000000000000000815260040160405180910390fd5b6000600760008154809291906110da906128c7565b9190505590506040518061010001604052803373ffffffffffffffffffffffffffffffffffffffff1681526020018773ffffffffffffffffffffffffffffffffffffffff1681526020018673ffffffffffffffffffffffffffffffffffffffff16815260200134815260200185815260200184815260200160008152602001600115158152506006600083815260200190815260200160002060008201518160000160006101000a81548173ffffffffffffffffffffffffffffffffffffffff021916908373ffffffffffffffffffffffffffffffffffffffff16021790555060208201518160010160006101000a81548173ffffffffffffffffffffffffffffffffffffffff021916908373ffffffffffffffffffffffffffffffffffffffff16021790555060408201518160020160006101000a81548173ffffffffffffffffffffffffffffffffffffffff021916908373ffffffffffffffffffffffffffffffffffffffff160217905550606082015181600301556080820151816004015560a0820151816005015560c0820151816006015560e08201518160070160006101000a81548160ff021916908315150217905550905050600073ffffffffffffffffffffffffffffffffffffffff168573ffffffffffffffffffffffffffffffffffffffff16141580156112d05750600034115b15611307576040517f2c5211c600000000000000000000000000000000000000000000000000000000815260040160405180910390fd5b3373ffffffffffffffffffffffffffffffffffffffff16817f1c65278d8f1d7f590c22548dd7289969e08d717ec9d6106504cf8cd119cbace4888888886040516113549493929190612a1c565b60405180910390a3600034111561139e57807f26679fa1f3868c950e9362f1106cf73f3318de0280e0411a3c68e4b463eadd4f346040516113959190612292565b60405180910390a25b80915050949350505050565b60006006600084815260200190815260200160002090508060070160009054906101000a900460ff16611409576040517f433528b600000000000000000000000000000000000000000000000000000000815260040160405180910390fd5b600073ffffffffffffffffffffffffffffffffffffffff168160020160009054906101000a900473ffffffffffffffffffffffffffffffffffffffff1673ffffffffffffffffffffffffffffffffffffffff1603611500576000341480611471575060008214155b156114a8576040517f2c5211c600000000000000000000000000000000000000000000000000000000815260040160405180910390fd5b348160030160008282546114bc9190612a61565b92505081905550827f26679fa1f3868c950e9362f1106cf73f3318de0280e0411a3c68e4b463eadd4f346040516114f39190612292565b60405180910390a26115eb565b600034118061150f5750600082145b15611546576040517f2c5211c600000000000000000000000000000000000000000000000000000000815260040160405180910390fd5b8181600301600082825461155a9190612a61565b925050819055506115b23330848460020160009054906101000a900473ffffffffffffffffffffffffffffffffffffffff1673ffffffffffffffffffffffffffffffffffffffff16611a5a909392919063ffffffff16565b827f26679fa1f3868c950e9362f1106cf73f3318de0280e0411a3c68e4b463eadd4f836040516115e29190612292565b60405180910390a25b505050565b6006600083815260200190815260200160002060000160009054906101000a900473ffffffffffffffffffffffffffffffffffffffff1673ffffffffffffffffffffffffffffffffffffffff163373ffffffffffffffffffffffffffffffffffffffff161461168b576040517f82b4290000000000000000000000000000000000000000000000000000000000815260040160405180910390fd5b806006600084815260200190815260200160002060070160006101000a81548160ff021916908315150217905550806116f857817f55468ddebce251685ac34a730dbdcef0b68719d769c74914843abf493b24deef60006040516116ef9190612ada565b60405180910390a25b5050565b611704611782565b600073ffffffffffffffffffffffffffffffffffffffff168173ffffffffffffffffffffffffffffffffffffffff16036117765760006040517f1e4fbdf700000000000000000000000000000000000000000000000000000000815260040161176d9190612319565b60405180910390fd5b61177f81611809565b50565b61178a611adc565b73ffffffffffffffffffffffffffffffffffffffff166117a8610929565b73ffffffffffffffffffffffffffffffffffffffff1614611807576117cb611adc565b6040517f118cdaa70000000000000000000000000000000000000000000000000000000081526004016117fe9190612319565b60405180910390fd5b565b6000600260009054906101000a900473ffffffffffffffffffffffffffffffffffffffff16905081600260006101000a81548173ffffffffffffffffffffffffffffffffffffffff021916908373ffffffffffffffffffffffffffffffffffffffff1602179055508173ffffffffffffffffffffffffffffffffffffffff168173ffffffffffffffffffffffffffffffffffffffff167f8be0079c531659141344cd1fd0a4f28419497f9722a3daafe3b4186f6b6457e060405160405180910390a35050565b606061190560007f0000000000000000000000000000000000000000000000000000000000000000611ae490919063ffffffff16565b905090565b606061194060017f0000000000000000000000000000000000000000000000000000000000000000611ae490919063ffffffff16565b905090565b600260035403611981576040517f3ee5aeb500000000000000000000000000000000000000000000000000000000815260040160405180910390fd5b6002600381905550565b611a05838473ffffffffffffffffffffffffffffffffffffffff1663a9059cbb85856040516024016119be929190612af5565b604051602081830303815290604052915060e01b6020820180517bffffffffffffffffffffffffffffffffffffffffffffffffffffffff8381831617835250505050611b94565b505050565b6001600381905550565b6000611a27611a21611c36565b83611ced565b9050919050565b600080600080611a3e8686611d2e565b925092509250611a4e8282611d8a565b82935050505092915050565b611ad6848573ffffffffffffffffffffffffffffffffffffffff166323b872dd868686604051602401611a8f93929190612b1e565b604051602081830303815290604052915060e01b6020820180517bffffffffffffffffffffffffffffffffffffffffffffffffffffffff8381831617835250505050611b94565b50505050565b600033905090565b606060ff60001b8314611b0157611afa83611eee565b9050611b8e565b818054611b0d90612b84565b80601f0160208091040260200160405190810160405280929190818152602001828054611b3990612b84565b8015611b865780601f10611b5b57610100808354040283529160200191611b86565b820191906000526020600020905b815481529060010190602001808311611b6957829003601f168201915b505050505090505b92915050565b600080602060008451602086016000885af180611bb7576040513d6000823e3d81fd5b3d925060005191505060008214611bd2576001811415611bee565b60008473ffffffffffffffffffffffffffffffffffffffff163b145b15611c3057836040517f5274afe7000000000000000000000000000000000000000000000000000000008152600401611c279190612319565b60405180910390fd5b50505050565b60007f000000000000000000000000000000000000000000000000000000000000000073ffffffffffffffffffffffffffffffffffffffff163073ffffffffffffffffffffffffffffffffffffffff16148015611cb257507f000000000000000000000000000000000000000000000000000000000000000046145b15611cdf577f00000000000000000000000000000000000000000000000000000000000000009050611cea565b611ce7611f62565b90505b90565b60006040517f190100000000000000000000000000000000000000000000000000000000000081528360028201528260228201526042812091505092915050565b60008060006041845103611d735760008060006020870151925060408701519150606087015160001a9050611d6588828585611ff8565b955095509550505050611d83565b60006002855160001b9250925092505b9250925092565b60006003811115611d9e57611d9d612bb5565b5b826003811115611db157611db0612bb5565b5b0315611eea5760016003811115611dcb57611dca612bb5565b5b826003811115611dde57611ddd612bb5565b5b03611e15576040517ff645eedf00000000000000000000000000000000000000000000000000000000815260040160405180910390fd5b60026003811115611e2957611e28612bb5565b5b826003811115611e3c57611e3b612bb5565b5b03611e81578060001c6040517ffce698f7000000000000000000000000000000000000000000000000000000008152600401611e789190612292565b60405180910390fd5b600380811115611e9457611e93612bb5565b5b826003811115611ea757611ea6612bb5565b5b03611ee957806040517fd78bce0c000000000000000000000000000000000000000000000000000000008152600401611ee09190612be4565b60405180910390fd5b5b5050565b60606000611efb836120ec565b90506000602067ffffffffffffffff811115611f1a57611f19612799565b5b6040519080825280601f01601f191660200182016040528015611f4c5781602001600182028036833780820191505090505b5090508181528360208201528092505050919050565b60007f8b73c3c69bb8fe3d512ecc4cf759cc79239f7b179b0ffacaa9a75d522b39400f7f00000000000000000000000000000000000000000000000000000000000000007f00000000000000000000000000000000000000000000000000000000000000004630604051602001611fdd959493929190612bff565b60405160208183030381529060405280519060200120905090565b60008060007f7fffffffffffffffffffffffffffffff5d576e7357a4501ddfe92f46681b20a08460001c11156120385760006003859250925092506120e2565b60006001888888886040516000815260200160405260405161205d9493929190612c6e565b6020604051602081039080840390855afa15801561207f573d6000803e3d6000fd5b505050602060405103519050600073ffffffffffffffffffffffffffffffffffffffff168173ffffffffffffffffffffffffffffffffffffffff16036120d357600060016000801b935093509350506120e2565b8060008060001b935093509350505b9450945094915050565b60008060ff8360001c169050601f811115612133576040517fb3512b0c00000000000000000000000000000000000000000000000000000000815260040160405180910390fd5b80915050919050565b600080fd5b600080fd5b6000819050919050565b61215981612146565b811461216457600080fd5b50565b60008135905061217681612150565b92915050565b6000602082840312156121925761219161213c565b5b60006121a084828501612167565b91505092915050565b600073ffffffffffffffffffffffffffffffffffffffff82169050919050565b60006121d4826121a9565b9050919050565b6121e4816121c9565b82525050565b6121f381612146565b82525050565b60008115159050919050565b61220e816121f9565b82525050565b60006101008201905061222a600083018b6121db565b612237602083018a6121db565b61224460408301896121db565b61225160608301886121ea565b61225e60808301876121ea565b61226b60a08301866121ea565b61227860c08301856121ea565b61228560e0830184612205565b9998505050505050505050565b60006020820190506122a760008301846121ea565b92915050565b6122b6816121c9565b81146122c157600080fd5b50565b6000813590506122d3816122ad565b92915050565b600080604083850312156122f0576122ef61213c565b5b60006122fe85828601612167565b925050602061230f858286016122c4565b9150509250929050565b600060208201905061232e60008301846121db565b92915050565b60007fff0000000000000000000000000000000000000000000000000000000000000082169050919050565b61236981612334565b82525050565b600081519050919050565b600082825260208201905092915050565b60005b838110156123a957808201518184015260208101905061238e565b60008484015250505050565b6000601f19601f8301169050919050565b60006123d18261236f565b6123db818561237a565b93506123eb81856020860161238b565b6123f4816123b5565b840191505092915050565b6000819050919050565b612412816123ff565b82525050565b600081519050919050565b600082825260208201905092915050565b6000819050602082019050919050565b61244d81612146565b82525050565b600061245f8383612444565b60208301905092915050565b6000602082019050919050565b600061248382612418565b61248d8185612423565b935061249883612434565b8060005b838110156124c95781516124b08882612453565b97506124bb8361246b565b92505060018101905061249c565b5085935050505092915050565b600060e0820190506124eb600083018a612360565b81810360208301526124fd81896123c6565b9050818103604083015261251181886123c6565b905061252060608301876121ea565b61252d60808301866121db565b61253a60a0830185612409565b81810360c083015261254c8184612478565b905098975050505050505050565b600080fd5b600080fd5b600080fd5b60008083601f84011261257f5761257e61255a565b5b8235905067ffffffffffffffff81111561259c5761259b61255f565b5b6020830191508360018202830111156125b8576125b7612564565b5b9250929050565b60008060008060008060a087890312156125dc576125db61213c565b5b60006125ea89828a01612167565b96505060206125fb89828a01612167565b955050604061260c89828a01612167565b945050606061261d89828a01612167565b935050608087013567ffffffffffffffff81111561263e5761263d612141565b5b61264a89828a01612569565b92509250509295509295509295565b600080600080608085870312156126735761267261213c565b5b6000612681878288016122c4565b9450506020612692878288016122c4565b93505060406126a387828801612167565b92505060606126b487828801612167565b91505092959194509250565b600080604083850312156126d7576126d661213c565b5b60006126e585828601612167565b92505060206126f685828601612167565b9150509250929050565b612709816121f9565b811461271457600080fd5b50565b60008135905061272681612700565b92915050565b600080604083850312156127435761274261213c565b5b600061275185828601612167565b925050602061276285828601612717565b9150509250929050565b6000602082840312156127825761278161213c565b5b6000612790848285016122c4565b91505092915050565b7f4e487b7100000000000000000000000000000000000000000000000000000000600052604160045260246000fd5b60006040820190506127dd60008301856121ea565b6127ea60208301846121db565b9392505050565b600081905092915050565b50565b600061280c6000836127f1565b9150612817826127fc565b600082019050919050565b600061282d826127ff565b9150819050919050565b600060c08201905061284c6000830189612409565b61285960208301886121ea565b61286660408301876121db565b61287360608301866121ea565b61288060808301856121ea565b61288d60a08301846121ea565b979650505050505050565b7f4e487b7100000000000000000000000000000000000000000000000000000000600052601160045260246000fd5b60006128d282612146565b91507fffffffffffffffffffffffffffffffffffffffffffffffffffffffffffffffff820361290457612903612898565b5b600182019050919050565b600061291a82612146565b915061292583612146565b925082820390508181111561293d5761293c612898565b5b92915050565b600061294e82612146565b915061295983612146565b925082820261296781612146565b9150828204841483151761297e5761297d612898565b5b5092915050565b7f4e487b7100000000000000000000000000000000000000000000000000000000600052601260045260246000fd5b60006129bf82612146565b91506129ca83612146565b9250826129da576129d9612985565b5b828204905092915050565b60006060820190506129fa60008301866121ea565b612a0760208301856121ea565b612a1460408301846121ea565b949350505050565b6000608082019050612a3160008301876121db565b612a3e60208301866121db565b612a4b60408301856121ea565b612a5860608301846121ea565b95945050505050565b6000612a6c82612146565b9150612a7783612146565b9250828201905080821115612a8f57612a8e612898565b5b92915050565b6000819050919050565b6000819050919050565b6000612ac4612abf612aba84612a95565b612a9f565b612146565b9050919050565b612ad481612aa9565b82525050565b6000602082019050612aef6000830184612acb565b92915050565b6000604082019050612b0a60008301856121db565b612b1760208301846121ea565b9392505050565b6000606082019050612b3360008301866121db565b612b4060208301856121db565b612b4d60408301846121ea565b949350505050565b7f4e487b7100000000000000000000000000000000000000000000000000000000600052602260045260246000fd5b60006002820490506001821680612b9c57607f821691505b602082108103612baf57612bae612b55565b5b50919050565b7f4e487b7100000000000000000000000000000000000000000000000000000000600052602160045260246000fd5b6000602082019050612bf96000830184612409565b92915050565b600060a082019050612c146000830188612409565b612c216020830187612409565b612c2e6040830186612409565b612c3b60608301856121ea565b612c4860808301846121db565b9695505050505050565b600060ff82169050919050565b612c6881612c52565b82525050565b6000608082019050612c836000830187612409565b612c906020830186612c5f565b612c9d6040830185612409565b612caa6060830184612409565b9594505050505056fea26469706673582212200aef7ff47a161213ab0f318d33ce8362648e025521a4995c136c2350d1e7ed8664736f6c63430008180033",
  "linkReferences": {},
  "deployedLinkReferences": {}
}